:020000040800F2
:1000000038040020450100081D030008A90200086B
:10001000190300088D0100088F0A00080000000085
:10002000000000000000000000000000BD04000807
:100030009101000800000000A5030008D105000898
:100040005F0100085F0100085F0100085F01000810
:100050005F0100085F0100085F0100085F01000800
:100060005F0100085F0100085F0100085F010008F0
:100070005F0100085F0100085F0100085F010008E0
:100080005F0100085F0100085F0100085F010008D0
:100090005F0100085F0100085F0100085F010008C0
:1000A0005F0100085F0100085F0100085F010008B0
:1000B0005F010008350600085F0100085F010008C5
:1000C0005F0100085F0100085F0100085F01000890
:1000D0005F010008F90700085F0100085F010008E0
:1000E0005F0100085F0100085F0100085F01000870
:1000F0005F0100085F0100085F0100085F01000860
:100100005F0100085F0100085F0100085F0100084F
:100110005F0100085F0100085F0100085F0100083F
:100120005F0100085F0100085F0100085F0100082F
:10013000DFF80CD000F018F8004800475D0B00080D
:10014000380400200648804706480047FEE7FEE7DF
:10015000FEE7FEE7FEE7FEE7FEE7FEE7FEE7FEE777
:10016000D505000831010008064C074D06E0E0689F
:1001700040F0010394E8070098471034AC42F6D3EE
:10018000FFF7DAFF840B0008A40B000800BFFEE7AE
:1001900070472DE9F041024600250026002000238B
:1001A0000024002791F803C00CF00F0591F803C05C
:1001B0000CF0100CBCF1000F03D091F802C04CEA17
:1001C000050591F800C0BCF1000F31D01468002083
:1001D0002BE04FF0010C0CFA00F3B1F800C00CEA70
:1001E00003069E4220D183004FF00F0C0CFA03F758
:1001F000BC4305FA03FC4CEA040491F803C0BCF1CB
:10020000280F06D14FF0010C0CFA00FCC2F814C004
:100210000AE091F803C0BCF1480F05D14FF0010C82
:100220000CFA00FCC2F810C0401C0828D1D314609E
:10023000B1F800C0BCF1FF0F34DD546800202EE09F
:1002400000F1080C4FF0010808FA0CF3B1F800C0F7
:100250000CEA03069E4221D183004FF00F0C0CFAEA
:1002600003F7BC4305FA03FC4CEA040491F803C00D
:10027000BCF1280F05D100F1080C08FA0CF8C2F8FF
:10028000148091F803C0BCF1480F07D100F1080CAD
:100290004FF0010808FA0CF8C2F81080401C08283A
:1002A000CED35460BDE8F08100BFFEE708B5012160
:1002B000082000F089F80121202000F085F8202096
:1002C000ADF8000010208DF8030003208DF8020027
:1002D00069460C48FFF75DFF4820ADF8000010208C
:1002E0008DF8030003208DF8020069460648FFF7E9
:1002F00050FF0120054908600549C1F898010549EA
:10030000086008BD000C01400014014094812142A6
:10031000008022428C81224200BFFEE7704700002D
:1003200070B5002100230F22C47804B3154C246853
:1003300004F4E064C4F5E064210AC1F10403CA4096
:10034000447804FA03F184781440214309010E4CE7
:100350000678A155047804F01F050124AC40057807
:100360006D11AD0005F1E025C5F8004109E0047804
:1003700004F01F050124AC40044D0678761145F8C1
:10038000264070BD0CED00E000E400E080E100E0FC
:1003900002490143024A1160704700000000FA055B
:1003A0000CED00E07047000029B1064AD269024313
:1003B000044BDA6104E0034AD2698243014BDA61FB
:1003C000704700000010024029B1064A92690243BA
:1003D000044B9A6104E0034A92698243014B9A619B
:1003E000704700000010024030B5002100220024B8
:1003F00000232D4D6D6805F00C0121B1042905D0B5
:10040000082923D105E0294D056022E0274D05602C
:100410001FE0254D6D6805F47012234D6D6805F4DD
:100420008034022505EB92421CB9214D55430560ED
:100430000BE01D4D6D6805F400351DB11C4D554395
:10044000056002E0194D5543056002E0174D056057
:1004500000BF00BF144D6D6805F0F0010909154D8E
:100460006B5C0568DD4045600F4D6D6805F4E0612B
:10047000090A104D6B5C4568DD4085600A4D6D686A
:1004800005F46051C90A0B4D6B5C4568DD40C560E1
:10049000054D6D6805F44041890B074D6B5CC568DF
:1004A000B5FBF3F5056130BD0010024000127A0083
:1004B00000093D001A0000202A000020704710B5F6
:1004C00000F002F810BD00000CB500200190009073
:1004D0003348006840F480303149086000BF30483C
:1004E000006800F4003000900198401C01900098D2
:1004F00018B90198B0F5A06FF1D12948006800F44F
:10050000003010B10120009001E000200090009820
:10051000012843D12348006840F0100021490860B9
:100520000846006820F0030008600846006840F0B4
:10053000020008601A484068194948600846406847
:1005400048600846406840F480604860084640685B
:1005500020F47C1048600846406840F4E810486089
:100560000846006840F08070086000BF0C480068D2
:1005700000F000700028F9D00948406820F003001E
:10058000074948600846406840F00200486000BFE4
:100590000348406800F00C000828F9D10CBD0000A9
:1005A0000010024000200240042808D14FF0E02152
:1005B000096941F004014FF0E022116107E04FF0BA
:1005C000E021096921F004014FF0E0221161704738
:1005D0007047000010B51348006840F00100114951
:1005E000086008464068104908400E4948600846BF
:1005F00000680E4908400B4908600846006820F46E
:10060000802008600846406820F4FE0048604FF4EF
:100610001F008860FFF753FF4FF000600449086037
:1006200010BD0000001002400000FFF8FFFFF6FEC2
:1006300008ED00E010B501210F4800F070F8D0B1CE
:100640000E4801880088401C0C4A1080B1F57A7F62
:100650000DDD0020114608800948006808B9012016
:1006600000E000200649086006A000F013FA01210E
:10067000014800F045F810BD0004004014000020BF
:100680009481214248656C6C6F20576F72640D0A2B
:10069000000000007FB505460C4601210220FFF74F
:1006A00083FE681E80B2ADF80800601E80B2ADF80F
:1006B00004000020ADF80A00ADF8060001A90F48BB
:1006C00000F048F81D208DF8000001208DF8010091
:1006D0008DF802008DF803006846FFF721FE012126
:1006E000064800F00DF801221146044800F028F8F1
:1006F0000121024800F007F87FBD0000000400401F
:10070000CA430282704721B1028842F0010202808E
:1007100004E002884FF6FE731A400280704730B53D
:100720000246002000230024158A05EA010395896A
:1007300005EA010413B10CB1012000E0002030BD36
:100740001AB183890B43838102E083898B438381C0
:1007500070470000002202881D4B98420ED01D4BAE
:1007600098420BD0B0F1804F08D01B4B984205D077
:100770001A4B984202D01A4B984204D14FF68F730D
:100780001A404B881A43174B984207D0164B984291
:1007900004D04FF6FF431A40CB881A4302808B885F
:1007A00083850B8803850A4B98420BD0094B9842EE
:1007B00008D00E4B984205D00D4B984202D00D4BFD
:1007C000984201D10B7A038601238382704700008F
:1007D000002C0140003401400004004000080040AB
:1007E000000C004000100040001400400040014098
:1007F000004401400048014010B5002440F224416B
:10080000094800F080F870B1074800F037F9C4B229
:1008100000BF4021044800F069F80128F9D12146C1
:10082000014800F030F910BD0038014010B586B025
:10083000044601218803FFF7C7FD01210420FFF7CB
:10084000C3FD4FF40070ADF8140003208DF81600BE
:1008500018208DF8170005A91C48FFF79AFC4FF4E3
:100860008060ADF8140004208DF8170005A9174822
:10087000FFF78FFC25208DF8000003208DF8010084
:100880008DF8020001208DF803006846FFF748FD4F
:1008900001940020ADF80800ADF80A00ADF80C0096
:1008A000ADF810000C20ADF80E0001A9084800F0CA
:1008B00079F8012240F22551054800F04EF8012157
:1008C000034800F007F806B010BD00000008014022
:1008D0000038014021B1828942F40052828104E053
:1008E00082894DF6FF731A408281704702460020CC
:1008F000B1F5007F00D100BF13880B400BB1012080
:1009000000E00020704770B5024600240023002557
:10091000002040F66A16B14200D100BFC1F3421573
:1009200001F01F03012606FA03F3012D02D1968977
:10093000334006E0022D02D1168A334001E0968A48
:1009400033400C12012606FA04F41688344013B121
:100950000CB1012000E0002070BDF0B5034600247A
:1009600000260025002040F66A17B94200D100BFDA
:100970001846C1F3421401F01F06012707FA06F5D5
:10098000012C01D10C3004E0022C01D1103000E028
:1009900014301AB107682F43076002E00768AF43BD
:1009A0000760F0BD2DE9F04786B005460E460024ED
:1009B000A24600BFA1460027B08900B100BF2F4664
:1009C0002C8A4CF6FF700440F08804432C82AC89DA
:1009D0004EF6F3100440B08831890843718908430A
:1009E0000443AC81AC8A4FF6FF400440B089044315
:1009F000AC8201A8FFF7F8FC1F48874202D1DDF85E
:100A000010A001E0DDF80CA0A88900F4004040B17E
:100A10000AEBCA0000EB0A1031684900B0FBF1F89C
:100A200007E00AEBCA0000EB0A1031688900B0FB4E
:100A3000F1F86420B8FBF0F004012009642101FB07
:100A40001089A88900F4004040B1322000EBC900B1
:100A5000B0FBF1F000F00700044308E0322000EBA7
:100A600009106421B0FBF1F000F00F0004432C8169
:100A700006B0BDE8F08700000038014001468888D4
:100A8000C0F308007047C1F308028280704700BFBE
:100A9000FEE70000014A024900F013B8290B0008E4
:100AA0003000002002E008C8121F08C1002AFAD155
:100AB00070477047002001E001C1121F002AFBD1DE
:100AC00070472DE9F04116460F460446002503E025
:100AD0003946B047641C6D1C20780028F8D12846A0
:100AE000BDE8F08110B56FF00400FFF75DFD0A4826
:100AF00000680A49B0FBF1F009490870084600781F
:100B000000EB4001C1EBC0104FF6FF7101EAC000DD
:100B10000449088010BD00000000002000127A0087
:100B2000160000201800002010B50A46002107E03A
:100B30004B1C9BB2194647F23054A34200DB10BD58
:100B4000054B1B8803F04003002BF1D0C3B2024CCD
:100B5000241D238000BFF2E7003801404FF4A0605D
:100B6000FFF716FCFFF7BEFFFFF7A0FB4FF4E130E5
:100B7000FFF75CFE48214FF47A70FFF78BFD00BF52
:100B8000FEE70000A40B0008000000203400000075
:100B9000A40A0008D80B0008340000200404000058
:100BA000B40A000800A24A0400000000000000008F
:100BB000010203040607080900000000000000000D
:100BC00000000102030401020304060708090204ED
:080BD00006080000000000000F
:0400000508000131BD
:00000001FF
